:020000040800F2
:100000009009002039020008512A000887250008BD
:100010004D2A000871060008E532000800000000C3
:10002000000000000000000000000000272B000876
:10003000CF07000800000000252B0008292B00082E
:10004000530200085302000853020008530200083C
:100050005302000853020008D107000853020008A9
:10006000530200085302000853020008530200081C
:1000700053020008530200085302000875060008E6
:100080008506000853020008530200080000000023
:100090000000000000000000000000005302000803
:1000A00053020008530200085302000853020008DC
:1000B00053020008530200085302000853020008CC
:1000C00053020008530200085302000853020008BC
:1000D0005302000853020008530200080000000009
:1000E00053020008530200085302000800000000F9
:1000F00000000000000000000000000053020008A3
:1001000000000000530200085302000853020008D8
:1001100000000000000000000000000000000000DF
:1001200095060008A5060008B50600085302000859
:100130005302000800000000000000000000000062
:100140000000000000000000000000005302000852
:10015000530200085302000853020008530200082B
:1001600053020008530200080000000000000000D5
:10017000000000000000000000000000000000007F
:100180000000000053020008000000000000000012
:10019000530200085302000800F002F800F03CF897
:1001A0000AA090E8000C82448344AAF10107DA45D2
:1001B00001D100F031F8AFF2090EBAE80F0013F0E8
:1001C000010F18BFFB1A43F0010318475433000016
:1001D00074330000103A24BF78C878C1FAD85207A7
:1001E00024BF30C830C144BF04680C6070470000B1
:1001F0000023002400250026103A28BF78C1FBD830
:10020000520728BF30C148BF0B6070471FB503F0CD
:100210006BF91FBD10B510BD00F0CFF81146FFF708
:10022000F5FF03F017F900F0EDF803B4FFF7F2FF64
:1002300003BC00F0F5F80000094880470948004772
:10024000FEE7FEE7FEE7FEE7FEE7FEE7FEE7FEE786
:10025000FEE7FEE704480549054A064B70470000E3
:10026000E12B00089901000890030020900900206C
:10027000900500209005002053EA020C00F06980F0
:100280002DE9F04B4FF00006002B1FBFB3FA83F5AA
:1002900003FA05F424FA05F65E4012BF1643B2FADB
:1002A00082F502FA05F4C5F120051EBF22FA05FC0D
:1002B00044EA0C04203556EA044C4FEA144418BFB3
:1002C000641C4FF000084FF00009904271EB030CE2
:1002D00039D3002919BFB1FA81F701FA07F6B0FA4C
:1002E00080F700FA07F6C7F120071EBF20FA07FCC7
:1002F00046EA0C062037B6FBF4FCA7EB0507103FD7
:1003000007F01F0BCBF120060CFA0BFB2CFA06F6BC
:1003100044BFB3460026202FA4BF5E464FF0000B1B
:100320005BEA060C08BF4FF0010B19EB0B09ABFBA6
:10033000027C48EB0608C01B06FB02CC0BFB03CC7F
:1003400071EB0C01C1E70B46024641464846BDE849
:10035000F08B13B54FF000004FF00001AFF30080B9
:10036000BDE81C4070474FF0000200B513469446AC
:100370009646203922BFA0E80C50A0E80C50B1F1FD
:100380002001BFF4F7AF090728BFA0E80C5048BF11
:100390000CC05DF804EB890028BF40F8042B08BFAF
:1003A000704748BF20F8022B11F0804F18BF00F8AB
:1003B000012B7047704770477047754600F02CF866
:1003C000AE4605006946534620F00700854618B042
:1003D00020B5FFF73FFFBDE820404FF000064FF08B
:1003E00000074FF000084FF0000B21F00701AC466A
:1003F000ACE8C009ACE8C009ACE8C009ACE8C00989
:100400008D46704710B50446AFF300802046BDE826
:100410001040FFF70ABF000000487047300300207B
:1004200001491820ABBEFEE726000200704770B5F8
:100430000546AC6B206C00F0500050BB206C40F4C3
:10044000007020642068806800F04050E8B9207E89
:10045000D8B92068C06A00F4700020B120688068B4
:1004600000F4806088B92068406820F0200021688E
:100470004860206C20F480702064206C00F4805070
:1004800018B9206C40F001002064204600F094FA76
:100490000BE0206C00F0100018B1204600F08EFA3E
:1004A00003E0A06BC16C2846884770BD70B5054657
:1004B000AC6B40202064606C40F004006064204617
:1004C00000F07CFA70BD70B50446A56B284600F0BC
:1004D00074FA70BD55494A6822F440324A604A684D
:1004E00043681A434A600268526822F480720368C3
:1004F0005A6002685368026943EA022203685A603C
:100500000268526822F0407203685A6002685268BA
:1005100083681A4303685A600268926822F4006292
:1005200003689A6002689268C3681A4303689A6015
:100530003F4B826A9A4218D00268926822F0706239
:1005400003689A6002689268836A1A4303689A6033
:100550000268926822F0405203689A6002689268CA
:10056000C36A1A4303689A600BE00268926822F03B
:10057000706203689A600268926822F040520368D1
:100580009A600268926822F0020203689A60026828
:100590009368027E43EA420203689A602022125C5A
:1005A000A2B10268526842F4006203685A600268AD
:1005B000526822F4604203685A6002685368426AD3
:1005C000521E43EA423203685A6005E002685268EC
:1005D00022F4006203685A600268D26A22F4700250
:1005E0000368DA620268D36A828B521E43EA0252BF
:1005F0000368DA620268926822F4007203689A6003
:100600000268936890F8302043EA422203689A60B7
:100610000268926822F4806203689A6002689368B4
:10062000426943EA822203689A60704700230140CE
:100630000100000F10B500F0EDFD0B490968401AEC
:100640000A280FD900224FF40051084800F0DCFDC1
:1006500002F066FE0521142002F0FCF900F0DAFD3C
:100660000149086010BD00000000002000080240A1
:1006700000BFFEE710B5024800F0F4FA10BD00001C
:100680001C02002010B5024800F0ECFA10BD00007A
:100690007C02002010B5024800F0E4FA10BD000012
:1006A0006C00002010B5024800F0DCFA10BD00001C
:1006B0005C01002010B5024800F0D4FA10BD000023
:1006C000BC0100200146087810381823B0FBF3F273
:1006D0000848805CC865032A05D908686FF30900DB
:1006E000001D886503E008686FF309008865886D60
:1006F00070470000FE340008014600208A6A8B69BA
:10070000CBB932B1012A0DD0022A03D0032A10D16D
:100710000EE000BFCB6A03F08073B3F1807F00D19D
:10072000012007E0CB6AB3F1C07F00D1012001E0D6
:1007300000E000BF34E08B69B3F5005F1AD132B13D
:10074000012A07D0022A03D0032A11D10AE000BFF0
:1007500001200EE0CB6A03F08073B3F1807F00D1FB
:10076000012006E0CB6AB3F1C07F00D1012000E098
:1007700000BF15E032B1012A05D0022A04D0032AB5
:100780000CD103E000BF00BF012008E0CB6A03F0FA
:100790008073B3F1807F00D1012000E000BF00BF73
:1007A000704730B50468246824F4802405682C6000
:1007B000046863608468402C04D10468A260046803
:1007C000E16003E00468A1600468E26030BD704746
:1007D00010B50C480068401C0A49086008460068CB
:1007E0000A2801D1002008600649086800EBD07192
:1007F0004910A0EB4101044A1160012000F012FCF5
:1008000010BD0000040000200800002072B600BFE8
:10081000FEE7000038B502460020009000BF92F8C5
:100820003C00012801D1022038BD012082F83C00A3
:1008300000BF0868092816D91068C0680C780A3CFF
:1008400004EB44050724AC40A0431468E0600C7836
:100850000A3C04EB44048868A0401468E468204320
:100860001468E06013E0106800690C7804EB44053C
:100870000724AC40A043146820610C7804EB4404C6
:100880008868A0401468246920431468206148687F
:10089000072817D21068406B0C79641E04EB84059E
:1008A0001F24AC40A04314686063088880B20C79B0
:1008B000641E04EB8404A0401468646B2043146835
:1008C000606331E048680D2817D21068006B0C791E
:1008D000E41F04EB84051F24AC40A043146820638C
:1008E000088880B20C79E41F04EB8404A0401468EB
:1008F000246B20431468206316E01068C06A0C79EA
:100900000D3C04EB84051F24AC40A0431468E06256
:10091000088880B20C790D3C04EB8404A040146874
:10092000E46A20431468E0621E4B1F4C1068A0422A
:100930000AD10868122807D1586820F400005860CE
:10094000586840F480005860174C1068A04222D1CB
:10095000164C0868A04202D0086811281BD15868BC
:1009600020F480005860586840F4000058600F4C34
:100970000868A0420FD10E4800680E4CB0FBF4F09E
:1009800000EB80004000009002E00098401E0090C4
:1009900000980028F9D100BF002082F83C0000BF79
:1009A00000BF41E700230140002001401200001079
:1009B0002000002040420F00704770477047000041
:1009C00070B5044600250CB9012070BD1549A06A18
:1009D000884200D000BF206C30B9204600F024F8D7
:1009E0000020606484F83C00206C00F0100088B99E
:1009F000206C20F4885040F0020020642046FFF76D
:100A000069FD00206064206C20F0020040F00100CD
:100A1000206400E0012500BF002084F83C0000BFF6
:100A20002846D2E70100000F10B586B00446142115
:100A300001A8FFF798FC2849206888424AD100BFE6
:100A4000002000902548006840F480702349086029
:100A50000846006800F48070009000BF00BF00BF2F
:100A6000002000901D481438006840F001001B4928
:100A7000143908600846006800F00100009000BFCB
:100A800000BF3E200190032002900020039001A9A6
:100A9000134800F0D5FA1348134908600020486055
:100AA000002111488160C1604FF4806101614900FB
:100AB0004161890081614911C16100210162416286
:100AC00000F0F0F908B1FFF7A1FE00BF0648A063EF
:100AD000846300BF06B010BD0020014044380240CE
:100AE00000000240106402406C000020F8B504468B
:100AF0000D4616460020009000BF94F83C000128E7
:100B000001D10220F8BD012084F83C0000BF20681C
:100B1000806800F00100A0B92068806840F0010002
:100B200021688860484800684849B0FBF1F000EB54
:100B30004000009002E00098401E009000980028BD
:100B4000F9D12068806800F48070B0F5807F05D10D
:100B50002068806820F48070216888602068806840
:100B600000F00100002865D0206C40F2016188434C
:100B700040F4807020642068406800F4806028B1F0
:100B8000206C20F4005040F480502064206C00F46D
:100B90008050B0F5805F04D1606C20F00600606486
:100BA00001E00020606400BF002084F83C0000BF2A
:100BB000274F2848A16BC8632748A16B08642748C2
:100BC000A16BC8646FF0220021680860206840684B
:100BD00040F08060216848602068806840F4807040
:100BE00021688860226802F14C0133462A46A06BD6
:100BF00000F0CEF9786800F01F0058B920688068CE
:100C000000F04050F0B92068806840F080402168D2
:100C1000886017E012492068884213D120688068F4
:100C200000F0405070B92068806840F08040216832
:100C3000886007E0206C40F010002064606C40F099
:100C40000100606400205DE72000002040420F00AA
:100C5000002301402F040008C7040008AD04000869
:100C600000200140F8B50446002000908C48006840
:100C70004FF41651B0FBF1F7A56D2E6894F85C1097
:100C800008208840304098B12068006800F00400D7
:100C900070B12068006820F004002168086094F8B2
:100CA0005C1008208840A860606D40F0010060651D
:100CB00094F85C1001208840304068B12068406999
:100CC00000F0800040B194F85C1001208840A860DA
:100CD000606D40F00200606594F85C10042088406C
:100CE000304068B12068006800F0020040B194F81C
:100CF0005C1004208840A860606D40F004006065CE
:100D000094F85C1010208840304078B32068006868
:100D100000F0080050B394F85C1010208840A860E0
:100D20002068006800F4802080B12068006800F42A
:100D3000002028B9206CC8B12046216C884715E0F6
:100D4000A06C98B12046A16C88470FE0206800682D
:100D500000F4807028B92068006820F0080021683D
:100D60000860206C10B12046216C884794F85C1014
:100D7000202088403040002865D02068006800F0BE
:100D8000100000285FD094F85C1020208840A860F4
:100D900094F83500052828D12068006820F0160056
:100DA000216808602068406920F08000216848615F
:100DB000206C08B9A06C28B12068006820F00800F9
:100DC0002168086094F85C103F208840A8600120EA
:100DD00084F8350000BF002084F8340000BF206D87
:100DE00010B12046216D8847F8BD2068006800F4E6
:100DF000802080B12068006800F4002028B9606C71
:100E000010B12046616C88471DE0E06BD8B12046E8
:100E1000E16B884717E02068006800F4807068B9CB
:100E20002068006820F0100021680860012084F824
:100E3000350000BF002084F8340000BFE06B10B123
:100E40002046E16B8847606D38B3606D00F00100AB
:100E5000F0B1052084F835002068006820F001001A
:100E60002168086000BF0098401C0090B84200D97B
:100E700005E02068006800F001000028F3D100BF01
:100E8000012084F8350000BF002084F8340000BF42
:100E9000E06C10B12046E16C884700BFA4E7000079
:100EA000200000202DE9F0410446002500F0B2F9B1
:100EB000074614B90120BDE8F081606A00B100BFA7
:100EC000022084F8350000BF002084F8340000BF01
:100ED0002068006820F00100216808600AE000F046
:100EE00099F9C01B052805D920206065032084F8E6
:100EF0003500E0E72068006800F001000028EED12E
:100F00002068056821480540D4E901010843E168EB
:100F100008432169084361690843A1690843E169FD
:100F20000843216A08430543606A042803D1D4E9D1
:100F30000B0108430543206805602068456925F0DA
:100F40000705606A0543606A04280DD1A06A05435D
:100F5000E06A48B12046FFF7CFFB28B1402060652A
:100F6000012084F83500A6E7206845612046FFF798
:100F7000A9FB064694F85C103F208840B060002032
:100F80006065012084F83500002094E73F8010F070
:100F90002DE9F04704460D4616461F464FF000085F
:100FA000D4F8589000BF94F83400012802D10220F0
:100FB000BDE8F087012084F8340000BF94F83500C4
:100FC000012825D1022084F83500002060653B46C9
:100FD000324629462046FFF7E4FB94F85C103F2098
:100FE0008840C9F808002068006840F016002168B1
:100FF0000860206C28B12068006840F00800216873
:1010000008602068006840F001002168086006E080
:1010100000BF002084F8340000BF4FF002084046B3
:10102000C6E7704710B5044604480068204020B168
:10103000024804602046FFF7F4FF10BD143C014055
:10104000F8B502460B460025002400200021C7E029
:10105000012606FA01F51E6806EA0504AC4274D1C1
:101060001E7906F00306012E04D01E7906F0030651
:10107000022E13D190684F000326BE40B0434F00AC
:10108000DE68BE4030439060506801268E40B04319
:101090001E79C6F300168E40304350601E7906F06C
:1010A0000306032E09D0D0684F000326BE40B0438C
:1010B0004F009E68BE403043D0601E7906F00306A4
:1010C000022E13D1CF0802F1200656F827004E0752
:1010D000F70E0F26BE40B0434F07FF0E1E69BE40FD
:1010E0003043CF0802F1200646F8270010684F0071
:1010F0000326BE40B0431E7906F003064F00BE40F3
:10110000304310605E6806F44036002E67D000BFA2
:1011100000260096344E366846F48046324F3E60D4
:101120003E46366806F48046009600BF00BF2F4E4C
:101130008F0856F827008E07370F0F26BE40B043A2
:101140002B4EB24202D1002615E048E0294EB242B1
:1011500001D101260FE0284EB24201D102260AE059
:10116000264EB24201D1032605E0254EB24201D1FE
:10117000042600E007268F073F0FBE4030431B4E7A
:101180008F0846F827001F4E3068A0435E6806F4BB
:10119000801606B120431B4E3060361D3068A043D8
:1011A0005E6806F4001606B12043164E361D306008
:1011B000144E361F3068A0435E6806F4003606B150
:1011C0002043104E361F3060361F3068A0435E68E3
:1011D00006F4803606B120430A4E083E3060491CB2
:1011E0001029FFF435AFF8BD4438024008380140FB
:1011F000000002400004024000080240000C0240CF
:1012000000100240083C01400AB1816101E00B047A
:101210008361704701480068704700001400002097
:101220000348006803490978084401490860704789
:10123000140000201C00002010B50D48006840F488
:1012400000700B4908600846006840F48060086040
:101250000846006840F480700860032000F0A6F89B
:101260000F2000F007F800F02BF8002010BD000060
:10127000003C024070B504460E4800784FF47A7185
:10128000B1FBF0F00C490968B1FBF0F5284600F01D
:101290002FFC08B1012070BD102C07D2002221467E
:1012A000501E00F045F80548046001E00120F2E717
:1012B0000020F0E71C000020200000201800002083
:1012C00008B500BF002000900E48006840F4804040
:1012D0000C4908600846006800F48040009000BF98
:1012E00000BF00BF00200090081F006840F0805041
:1012F000091F08600846006800F08050009000BF99
:1013000000BF08BD443802400146084600280DDBF6
:1013100000BF00BF00F01F0301229A4043099B0059
:1013200003F1E023C3F8002100BF00BF00BF7047F6
:101330002DE9F05F80460D461646002701F0D4FFE8
:10134000074639462A46334601F00700C0F1070A2E
:10135000BAF1040F02D94FF0040A01E0C0F1070A04
:10136000D14600F1040ABAF1070F02D24FF0000A89
:1013700001E0A0F1030AD4464FF0010A0AFA09FA83
:10138000AAF1010A0AEA020A0AFA0CFA4FF0010B62
:101390000BFA0CFBABF1010B0BEA030B4AEA0B0453
:1013A0002146404601F0A8FFBDE8F09F00BF00F0D5
:1013B0000702064B19684FF6FF031940044B0B4315
:1013C00043EA0221014B196000BF70470CED00E0B9
:1013D0000000FA0570B504460D460CB9012070BD39
:1013E0005848006800F00700A84209D255490D701E
:1013F0000846006800F00700A84201D00120EEE78F
:10140000207800F0020002281DD1207800F00400AE
:10141000042805D14C48006840F4E0504A4908606F
:10142000207800F00800082805D14748006840F4FB
:101430006040454908604448006820F0F000A16819
:10144000084341490860207800F00100A8B36068B3
:10145000012807D13C4808380068C0F34040B8B9BB
:101460000120BCE76068022802D06068032807D129
:10147000354808380068C0F3406048B90120AEE73D
:10148000314808380068C0F3400008B90120A6E7D9
:101490002D48006820F00300616808432A4908606D
:1014A000FFF7B8FE064609E0FFF7B4FE801B41F2E5
:1014B0008831884202D9032091E707E0224800687A
:1014C00000F00C006168B0EB810FEDD11D480068A1
:1014D00000F00700A84209D91A490D7008460068B3
:1014E00000F00700A84201D0012078E7207800F042
:1014F0000400042807D11448006820F4E050E16893
:10150000084311490860207800F00800082808D135
:101510000D48006820F46040216940EAC1000A4992
:10152000086000F03FF808490968C1F30311074A51
:10153000515CC8400649086006480068FFF79AFEFB
:1015400000204CE7003C0240083802400635000805
:1015500020000020180000200148006870470000AB
:101560002000002000B5FFF7F7FF04490968C1F328
:101570008221034A515CC84000BD00000838024087
:101580001635000800B5FFF7E7FF04490968C1F305
:101590004231034A515CC84000BD00000838024097
:1015A000163500082DE9F047002400250026A14645
:1015B0002548006800F00C0020B1042805D0082858
:1015C0003AD105E0DFF8849039E0DFF8849036E026
:1015D0001D48001F006800F03F041B48001F006802
:1015E00000F4800078B11A481749091F0968C1F34F
:1015F0008811A0FB01700146224600233846FEF701
:101600003BFE05460EE011480F49091F0968C1F36A
:101610008811A0FB01700146224600233846FEF7E0
:101620002BFE05460848001F0068C0F30140401C1F
:101630004600B5FBF6F902E0DFF8109000BF00BFEE
:101640004846BDE8F0870000083802400024F40056
:1016500040787D01F8B504460CB90120F8BD20782A
:1016600000F00100002874D0F948006800F00C0078
:1016700004280DD0F648006800F00C00082813D1AB
:10168000F348001F006800F48000B0F5800F0BD114
:10169000EF4808380068C0F34040002859D060681F
:1016A000002856D10120D9E700BF6068B0F5803F1F
:1016B00008D1E7480838006840F48030E449083928
:1016C00008601EE06068B0F5A02F0DD1E048083832
:1016D000006840F48020DE49083908600846006848
:1016E00040F4803008600CE0D9480838006820F4E5
:1016F0008030D749083908600846006820F4802007
:10170000086000BF606890B1FFF784FD054606E001
:10171000FFF780FD401B642801D903209EE7CC48D9
:1017200008380068C0F340400028F1D011E0FFF70E
:1017300071FD054606E0FFF76DFD401B642801D9E9
:1017400003208BE7C24808380068C0F340400028F7
:10175000F1D1207800F0020002285FD1BC48006877
:1017600000F00C0058B1BA48006800F00C000828DE
:101770001CD1B748001F006800F48000B0B9B4481D
:1017800008380068C0F3400020B1E068012801D0AB
:10179000012063E7AE480838006820F0F8002169AE
:1017A00040EAC100AA490839086037E0E06800B3A0
:1017B0000120A8490860FFF72DFD054606E0FFF768
:1017C00029FD401B022801D9032047E7A04808381B
:1017D0000068C0F340000028F1D09D480838006838
:1017E00020F0F800216940EAC100994908390860F1
:1017F00014E0002097490860FFF70CFD054606E05D
:10180000FFF708FD401B022801D9032026E7904876
:1018100008380068C0F340000028F1D1207800F0BB
:10182000080008282CD16069A8B101208A49086005
:10183000FFF7F0FC054606E0FFF7ECFC401B022832
:1018400001D903200AE782486C300068C0F34000E9
:101850000028F1D014E000207F490860FFF7DAFC8F
:10186000054606E0FFF7D6FC401B022801D90320FD
:10187000F4E677486C300068C0F340000028F1D1EE
:10188000207800F00400042870D100277048383018
:10189000006800F0805090B900BF002000906C48B4
:1018A0003830006840F08050694938310860084697
:1018B000006800F08050009000BF00BF012767481B
:1018C000006800F48070B0B96448006840F480702B
:1018D00062490860FFF79EFC054606E0FFF79AFCA8
:1018E000401B022801D90320B8E65C48006800F4D8
:1018F00080700028F2D000BFA068012808D15448A9
:101900006830006840F001005149683108601DE00E
:10191000A06805280DD14E486830006840F00400EA
:101920004B49683108600846006840F001000860D3
:101930000CE047486830006820F0010044496831F5
:1019400008600846006820F00400086000BFA06836
:10195000A8B1FFF75FFC054609E0FFF75BFC401B01
:1019600041F28831884202D9032077E626E03848E0
:1019700068300068C0F340000028EED013E0FFF7A5
:1019800049FC054608E0FFF745FC401B41F2883161
:10199000884201D9032061E62D4868300068C0F311
:1019A00040000028EFD1012F07D1294838300068C6
:1019B00020F0805026493831086000BFA069002817
:1019C00045D02348006800F00C0008285DD0A069CD
:1019D000022845D100201F490866FFF71BFC054679
:1019E00006E0FFF717FC401B022801D9032035E66B
:1019F000174808380068C0F340600028F1D1D4E9E6
:101A000007010843616A40EA81110122A06AC2EB22
:101A1000500041EA00412C20005D41EA00600C4981
:101A2000091F086001200B490866FFF7F3FB054614
:101A300006E0FFF7EFFB401B022801D903200DE66B
:101A4000034808380068C0F340600028F1D049E03E
:101A50000838024000004742800E474200700040B4
:101A6000002021490866FFF7D5FB054606E0FFF791
:101A7000D1FB401B022801D90320EFE51B48006879
:101A8000C0F340600028F2D12CE0A069012800D109
:101A9000E4E51648001D0668A069012820D006F478
:101AA0008001E06981421BD106F03F01206A81423A
:101AB00016D147F6C0703040616AB0EB811F0FD17C
:101AC00006F440310122A06AC2EB5000B1EB004F96
:101AD00006D106F070612C20005DB1EB006F01D0E3
:101AE0000120BBE50020B9E5000047420038024074
:101AF00070B504462546681EB0F1807F01D30120F1
:101B00000FE0681E4FF0E02148610F214FF0FF30D9
:101B100001F0F2FB00204FF0E0218861072008610E
:101B2000002070BD10B50346002200BF93F83C00B2
:101B3000012801D1022010BD012083F83C0000BF24
:101B400022F0FF00CC6840EA040222F440708C6866
:101B500040EA040222F480604C6840EA040222F465
:101B600000600C6840EA040222F480500C6940EAEC
:101B7000040222F400504C6940EA040222F480403E
:101B8000CC6940EA04021868426400BF002083F870
:101B90003C0000BF00BFCEE730B502460B4600BF99
:101BA00092F83C00012801D1022030BD012082F8CA
:101BB0003C0000BF022082F83D00106844681068B5
:101BC000816824F070041868044310684460144D60
:101BD0001068A84213D01068B0F1804F0FD0114D9B
:101BE0001068A8420BD0104D1068A84207D00F4DC6
:101BF0001068A84203D00E4D1068A84205D121F00C
:101C000080015868014310688160012082F83D001E
:101C100000BF002082F83C0000BF00BFC5E7000005
:101C2000000001400004004000080040000C00409B
:101C30000040014010B504460CB9012010BD94F8D5
:101C40003D0028B9002084F83C00204600F026F82A
:101C5000022084F83D00211D206800F0CBFF012008
:101C600084F8460000BF84F83E0001213F20015562
:101C7000402001554120015500BF00BF012084F8DC
:101C8000420043200155442001554520015500BF25
:101C9000012084F83D000020D0E7000038B504465C
:101CA0005A492068884252D100BF0020009058480D
:101CB000006840F00100564908600846006800F0DE
:101CC0000100009000BF00BF5248534908604FF028
:101CD000406048604021504881600021C1604FF45D
:101CE0008061016149004161890081610021C16118
:101CF00001624162FFF7D6F808B1FEF787FD00BF29
:101D0000454961620846846300BF42481830434930
:101D100008604FF0406048604021404881600021E9
:101D2000C1604FF4806101614900416189008161B6
:101D30000021C16101624162FFF7B4F808B1FEF70A
:101D400065FD00BF3549A162084684635CE0344903
:101D50002068884258D100BF002000902C48001F06
:101D6000006840F002002A49091F08600846006820
:101D700000F00200009000BF00BF2A482A49086016
:101D80004FF0206048604021274881600021C160F9
:101D90004FF4806101614900416189008161002146
:101DA000C16101624162FFF77DF808B1FEF72EFDC7
:101DB00000BF1D4961620846846300BF00BFA16384
:101DC000846300BF17481830184908604FF020603E
:101DD00048604021154881600021C1604FF4806156
:101DE000016149004161890081610021C161016295
:101DF0004162FFF757F808B1FEF708FD00BF0B4935
:101E0000A1620846846300BF38BD000000000140A5
:101E100044380240286402405C010020BC010020DC
:101E200000040040706002401C0200207C02002080
:101E30002DE9F04104460D46002700BF94F83C0010
:101E4000012802D10220BDE8F081012084F83C0085
:101E500000BF022084F83D002068866826F07706DF
:101E600026F47F46206886602868502833D00CDC32
:101E7000202850D004DC00284BD0102851D149E054
:101E8000302849D040284CD139E060282DD0702826
:101E900007D0B0F5805F03D0B0F5005F41D10DE011
:101EA00041E0D5E902136A68206800F091FF2068DC
:101EB000866846F077062068866034E0D5E902132C
:101EC0006A68206800F084FF2068806840F48040E1
:101ED0002168886027E0EA686968206801F048F8AE
:101EE0005021206800F07FFF1DE0EA6869682068E3
:101EF00001F051F86021206800F075FF13E0EA68F6
:101F00006968206801F034F84021206800F06BFF18
:101F100009E000BF00BF00BF2968206800F063FF30
:101F200001E0012700BF00BF012084F83D0000BF91
:101F3000002084F83C0000BF384684E7704700006A
:101F400010B586B00446142101A8FEF70CFA3149F9
:101F5000206888421ED100BF002000902E480068F3
:101F600040F001002C4908600846006800F00100BC
:101F7000009000BF00BF4FF440700190022002901B
:101F80000020039004900120059001A92348FFF749
:101F900057F83CE022492068884238D100BF002031
:101FA00000901D48006840F001001B490860084689
:101FB000006800F00100009000BF00BF00BF0020DB
:101FC00000900846006840F002000860084600687B
:101FD00000F00200009000BF00BF802001900220AE
:101FE00002900020039004900220059001A90B4864
:101FF000FFF726F8102001900220029000200390A5
:1020000004900220059001A90648FFF719F806B0D0
:1020100010BD0000000001403038024000000240C6
:1020200000040040000402402DE9F04104460D4642
:102030001646002700BF94F83C00012802D1022078
:10204000BDE8F081012084F83C0000BF36B1042EC9
:102050001BD0082E31D00C2E5ED145E029462068D9
:1020600000F0CAFE2068806940F00800216888619D
:102070002068806920F004002168886120688069F8
:10208000296908432168886148E02946206800F0F2
:10209000E3FE2068806940F4006021688861206860
:1020A000806920F4806021688861206880692969DE
:1020B00040EA01202168886130E02946206800F06C
:1020C000FFFE2068C06940F008002168C8612068F0
:1020D000C06920F004002168C8612068C0692969CE
:1020E00008432168C86119E02946206800F01CFFF8
:1020F0002068C06940F400602168C8612068C06938
:1021000020F480602168C8612068C069296940EABC
:1021100001202168C86101E0012700BF00BF00BFA6
:10212000002084F83C0000BF384689E710B504461B
:102130000CB9012010BD94F83D0028B9002084F8A6
:102140003C00204600F025F8022084F83D00211DC7
:10215000206800F04FFD012084F8460000BF84F89D
:102160003E0001213F2001554020015541200155ED
:1021700000BF00BF012084F84200432001554420E5
:1021800001554520015500BF012084F83D00002085
:10219000D0E77047704770472DE9F04704460D4679
:1021A00016461F464FF0000815B994F83E000BE0A4
:1021B000042D02D13F20005D06E0082D02D1402011
:1021C000005D01E04120005D022801D1BDE8F087FB
:1021D00015B994F83E000BE0042D02D13F20005DBC
:1021E00006E0082D02D14020005D01E04120005DA5
:1021F000012818D106B10FB90120E7E71DB9022067
:1022000084F83E0011E0042D03D102213F20015546
:102210000BE0082D03D102214020015505E00221E9
:102220004120015501E00120D0E735B1042D1FD038
:10223000082D38D00C2D6CD150E05A49606AC1632A
:102240005949606A01645949606AC164216801F1B1
:1022500034023B463146606AFEF79AFE08B101201F
:10226000B4E72068C06840F400702168C86053E09B
:102270004C49A06AC1634C49A06A01644B49A06AF9
:10228000C164216801F138023B463146A06AFEF77D
:102290007FFE08B1012099E72068C06840F48060A3
:1022A0002168C86038E03F49E06AC1633E49E06A9E
:1022B00001643E49E06AC164216801F13C023B4689
:1022C0003146E06AFEF764FE08B101207EE720682F
:1022D000C06840F400602168C8601DE03149206B8F
:1022E000C1633149206B01643049206BC1642168AE
:1022F00001F140023B463146206BFEF749FE08B132
:10230000012063E72068C06840F480502168C860FD
:1023100002E04FF0010800BF00BFB8F1000F3ED14E
:1023200001222946206800F0BFFC2149206888422C
:1023300001D1012000E0002028B12068406C40F469
:102340000040216848641A492068884213D02068F8
:10235000B0F1804F0FD01749206888420BD0164942
:102360002068884207D015492068884203D0144964
:10237000206888420DD12068806800F00709B9F113
:10238000060F0CD02068006840F00100216808604A
:1023900005E02068006840F00100216808604046C0
:1023A00014E70000CB2C0008332D0008732D000823
:1023B000000001400004004000080040000C004004
:1023C0000040014010B504460CB9012010BDA069C1
:1023D00000B100E000BF94F8410028B9002084F863
:1023E0004000204600F02AF8242084F841002068AC
:1023F000C06820F400502168C860204600F016FE36
:102400002068006920F490402168086120684069D4
:1024100020F02A00216848612068C06840F400501C
:102420002168C86000206064202084F8410084F89E
:1024300042000020606300BFC8E7000010B586B00E
:102440000446142101A8FDF78EFF1B49206888422D
:1024500030D100BF002000901848006840F02000F4
:10246000164908600846006800F02000009000BF90
:1024700000BF00BF0020009010481438006840F0F2
:1024800001000E49143908600846006800F0010098
:10249000009000BF00BF4FF4C05001900220029096
:1024A00000200390032004900820059001A904480F
:1024B000FEF7C6FD06B010BD0014014044380240CE
:1024C000000002402DE9F84F04460E461746994693
:1024D0004FF0000A94F84200202852D106B117B9F3
:1024E0000120BDE8F88F00206064222084F84200BB
:1024F00000202063FEF78EFE8246A785E785A06850
:10250000B0F5805F04D1206910B90025B04602E023
:1025100035464FF000082CE053460022202120468B
:10252000CDF8009000F098FE20B1202084F8420001
:102530000320D6E745B920684068C0F30800A8F832
:10254000000008F1020811E0A068B0F5805F03D038
:10255000A06828B9206918B920684068287004E08C
:102560002068406800F07F0028706D1CE08D401EE0
:10257000E085E08D0028CFD1202084F842000020A3
:10258000AFE70220ADE700BFFEE700001FB5002067
:10259000009001900290039028482949086000208B
:1025A00048600021264881600121016101760021F7
:1025B00080F82010C162234981620021C160052199
:1025C000C161012180F830104161FEF7F9F908B1CD
:1025D000FEF71CF90120009001900320029069464B
:1025E0001748FEF717F908B1FEF710F9022001901D
:1025F00069461348FEF70EF908B1FEF707F9032004
:102600000090019069460E48FEF704F908B1FEF704
:10261000FDF804200090019069460948FEF7FAF899
:1026200008B1FEF7F3F805200090019069460448D0
:10263000FEF7F0F808B1FEF7E9F81FBD00200140F1
:10264000240000200100000F08B500BF002000900A
:102650002248006840F4800020490860084600686D
:1026600000F48000009000BF00BF00BF0020009079
:102670000846006840F4001008600846006800F44E
:102680000010009000BF00BF002211460F20FEF78F
:102690004FFE0F20FEF738FE002211461020FEF7F5
:1026A00047FE1020FEF730FE002211463820FEF7CC
:1026B0003FFE3820FEF728FE002211463920FEF7A3
:1026C00037FE3920FEF720FE002211463A20FEF7A1
:1026D0002FFE3A20FEF718FE08BD000030380240F9
:1026E00000B587B0142102A8FDF73DFE00BF002011
:1026F00001903948006840F00400374908600846F6
:10270000006800F00400019000BF00BF00BF00207F
:1027100001900846006840F08000086008460068A4
:1027200000F08000019000BF00BF00BF00200190BA
:102730000846006840F0010008600846006800F0A4
:102740000100019000BF00BF00BF002001900846BB
:10275000006840F0020008600846006800F00200CF
:10276000019000BF00BF00224FF400511B48FEF74C
:102770004BFD00224FF470411948FEF745FD4FF420
:10278000005002900120039000200490059002A9BF
:102790001248FEF755FC012002904FF48810039078
:1027A0000120049002A90F48FEF74AFC4FF4704044
:1027B00002900120039000200490059002A908488F
:1027C000FEF73EFC002211460620FEF7B1FD062072
:1027D000FEF79AFD07B000BD303802400008024005
:1027E000000402400000024000B595B000201190A6
:1027F0001290139014900F9010901C2108A8FDF7D0
:10280000B2FD20216846FDF7AEFD2F482F49086034
:1028100040F2CF20486000212C48816040F22B110B
:10282000C1600021016141618161FFF703FA08B1D4
:10283000FDF7ECFF4FF48050119011A92348FFF7EA
:10284000F7FA08B1FDF7E2FF2048FFF76FFC08B187
:10285000FDF7DCFF00200F9010900FA91B48FFF739
:102860009BF908B1FDF7D2FF602008900020099085
:102870000A900B900C900D900E90002208A913481E
:10288000FFF7D2FB08B1FDF7C1FF042208A90F48EA
:10289000FFF7CAFB08B1FDF7B9FF002000900190D7
:1028A0000290039004904FF4005005900020079090
:1028B00069460648FFF736F908B1FDF7A7FF034858
:1028C000FFF73EFB15B000BD00000140CC0000202A
:1028D00000B58DB0002009900A900B900C900790E5
:1028E00008901C216846FDF73EFD244824490860F5
:1028F00040F2CF20486000212148816040F2E7315A
:10290000C160002101618161FFF794F908B1FDF711
:102910007DFF4FF48050099009A91948FFF788FA04
:1029200008B1FDF773FF1648FFF700FC08B1FDF78B
:102930006DFF00200790089007A91148FFF72CF9B8
:1029400008B1FDF763FF6020009000200190029025
:102950000490002269460A48FFF766FB08B1FDF7BC
:1029600055FF042269460648FFF75EFB08B1FDF7F4
:102970004DFF0348FFF7E4FA0DB000BD000400402E
:102980001401002010B50B480B4908604FF4E130EA
:102990004860002108488160C16001610C214161EB
:1029A00000218161C161FFF70DFD08B1FDF72EFF28
:1029B00010BD000000140140DC02002008B5012217
:1029C00051031F48FEF720FC4FF47A730122694639
:1029D0001C48FFF777FD9DF800004C281CD004DC54
:1029E000422812D0462827D108E052281CD053286C
:1029F00022D100201449486388631EE000F05AFD8C
:102A0000642011494863886317E000F009FD6420E1
:102A10000D494863886310E000F04CFD64200A49CA
:102A200048630020886308E000F044FD0020064968
:102A300048636420886300E000BF00BF08BD000059
:102A400000080240DC0200200000014000BFFEE759
:102A500000BFFEE72DE9FC4107460C4664256426CD
:102A60002B4890F900007843294991F90010294A30
:102A700092F90020891A04FB010000B2264908805F
:102A80000846B0F90000642802DD6420088009E0EF
:102A90002148B0F9000010F1640F03DA6FF0630011
:102AA0001D4908801A4890F90000002806DD1A48E0
:102AB0000088301A80B2019000950EE0144890F919
:102AC0000000002806DA019613480088284480B2E6
:102AD000009002E032200190009010480088022807
:102AE00002D1002001900090012301AA00210C488E
:102AF000FFF752FB01236A4604210948FFF74CFB0C
:102B0000034890F9000003490870BDE8FC8100000B
:102B10000C0000200D0000200E00002010000020FE
:102B2000140100207047704710B5FEF779FB10BD07
:102B300000B593B0302107A8FDF715FC142102A8B9
:102B4000FDF711FC00BF002001902348006840F011
:102B50008050214908600846006800F080500190CC
:102B600000BF00BF00BF002001901C48006840F477
:102B700040401A4908600846006800F4404001904F
:102B800000BF00BF012007900004089002200D90B4
:102B900041050E9119210F9190211091022111915F
:102BA0000421129107A8FEF755FD08B1FDF72EFE8E
:102BB0000F20029002200390002004904FF48050D8
:102BC000059000200690022102A8FEF703FC08B140
:102BD000FDF71CFE13B000BD4038024000700040FD
:102BE0000348006840F47000014908607047000025
:102BF00088ED00E010B50268244B98420BD0B0F18C
:102C0000804F08D0224B984205D0224B984202D0E8
:102C1000214B984203D122F070024B681A431B4BA0
:102C2000984214D0B0F1804F11D0194B98420ED079
:102C3000184B98420BD0184B984208D0174B98422B
:102C400005D0174B984202D0164B984203D122F47C
:102C50004072CB681A4322F080034C6943EA0402B5
:102C600002608B68C3620B688362084B984201D193
:102C70000B69036301234361036903F001031BB183
:102C8000036923F00103036110BD0000000001404F
:102C90000004004000080040000C004000400140DB
:102CA000004401400048014030B501F01F050124F7
:102CB00004FA05F3046A9C430462046A01F01F05E8
:102CC00002FA05F52C43046230BD70B50546AC6BC5
:102CD000606AA84207D101202077E86918BB01206B
:102CE00084F83E001FE0A06AA84207D102202077A6
:102CF000E869C0B901213F20015514E0E06AA8420B
:102D000007D104202077E86968B9012140200155E6
:102D100009E0206BA84206D108202077E86910B9A5
:102D20000121412001552046FFF734FA0020207789
:102D300070BD70B50546AC6B606AA84202D1012037
:102D4000207710E0A06AA84202D1022020770AE092
:102D5000E06AA84202D10420207704E0206BA84258
:102D600001D1082020772046FFF715FA00202077B0
:102D700070BD70B50546AC6B606AA84204D10120F5
:102D8000207784F83E001DE0A06AA84205D1022009
:102D9000207701213F20015514E0E06AA84205D1C7
:102DA000042020770121402001550BE0206BA84230
:102DB00005D10820207701214120015502E00120A2
:102DC00084F83D002046FFF7B9F80020207770BD59
:102DD00030B50C46816821F47F4142EA0325254342
:102DE0002943816030BD0A46816821F0700142F0BC
:102DF000070319438160704730B5026A056A25F000
:102E0000010505624368846924F0700424F003041A
:102E10000D682C4322F002028D682A430D4DA84212
:102E200006D100BF22F00802CD682A4322F0040236
:102E3000084DA84207D123F4807323F400734D6931
:102E40002B438D692B43436084614D684563026267
:102E500030BD00000000014030B5026A056A25F06F
:102E6000100505624368846924F4E04424F4407446
:102E70000D6844EA052422F020028D6842EA05121A
:102E80000E4DA84207D100BF22F08002CD6842EA71
:102E9000051222F04002094DA84209D123F48063B3
:102EA00023F400634D6943EA85038D6943EA850392
:102EB000436084614D688563026230BD000001405B
:102EC00030B5026A056A25F4807505624368C469F5
:102ED00024F0700424F003040D682C4322F40072E3
:102EE0008D6842EA05220F4DA84207D100BF22F4A7
:102EF0000062CD6842EA052222F48062094DA842B0
:102F000009D123F4805323F400534D6943EA051398
:102F10008D6943EA05134360C4614D68C56302626D
:102F200030BD00000000014030B5036A056A25F499
:102F3000805505624468C26922F4E04222F440727E
:102F40000D6842EA052223F400538D6843EA0533F5
:102F5000064DA84204D124F480444D6944EA851406
:102F60004460C2614D680564036230BD00000140E9
:102F700030B50B461446026A056A25F00105056264
:102F8000816921F0F00141EA041122F00A021A439A
:102F90008161026230BD30B50B461446026A056A93
:102FA00025F010050562816921F4704141EA043180
:102FB00022F0A00242EA03128161026230BD00BF2A
:102FC00000BF02680C3252E8002F22F490710268B0
:102FD0000C3242E80013002BF3D100BF00BF00BF4A
:102FE0000268143252E8002F22F001010268143204
:102FF00042E80013002BF3D100BF016B01290ED171
:1030000000BF00BF02680C3252E8002F22F010010E
:1030100002680C3242E80013002BF3D100BF2021DC
:1030200080F8421000210163704700002DE9F84F3D
:1030300004462068006920F44050E1680843216894
:1030400008612169A068084361690843E169084390
:1030500000902068C06849F20C61884300990843D9
:103060002168C8602068406920F44070A169084365
:103070002168486176492068884203D075492068F4
:10308000884203D1FEF77EFA814602E0FEF76AFA33
:103090008146E069B0F5004F6CD102206168A0FB69
:1030A000015003461920A9FB007001462A46384604
:1030B000FDF7E2F86421B0FBF1F04FEA001A0220BC
:1030C0006168A0FB01510B461920A9FB00712A463B
:1030D0003846FDF7D1F8834602206168A0FB015015
:1030E00003461920A9FB00712A463846FDF7C4F8AB
:1030F0006421B0FBF1F000EBC00101EB0010ABEB81
:103100008000322101EBC0006421B0FBF1F000F03F
:10311000F8000AEB400A02206168A0FB0150034658
:103120001920A9FB007001462A463846FDF7A4F88D
:10313000834602206168A0FB015003461920A9FBC9
:1031400000712A463846FDF797F86421B0FBF1F08C
:1031500000EBC00101EB0010ABEB8000322101EB72
:10316000C0006421B0FBF1F000F00700504421687A
:1031700088606AE004206168A0FB015003461920C2
:10318000A9FB007001462A463846FDF775F88246CD
:1031900004206168A0FB015003461920A9FB0070C0
:1031A00001462A463846FDF767F86421B0FBF1F086
:1031B00000EBC00101EB0010AAEB8000322101EB13
:1031C00000106421B0FBF1F000F0F00A0420616807
:1031D000A0FB017003461920A9FB00513A4628467E
:1031E000FDF74AF86421B0FBF1F00AEB001A042065
:1031F0006168A0FB01510B461920A9FB00712A460A
:103200003846FDF739F8834604206168A0FB015079
:1032100003461920A9FB007001462A463846FDF7EF
:103220002BF86421B0FBF1F000EBC00101EB0010C2
:10323000ABEB8000322101EB00106421B0FBF1F018
:1032400000F00F00504421688860BDE8F88F00004E
:1032500000100140001401402DE9F84304460D46DA
:1032600017469846089E31E0701C70B3FDF7D2FFF8
:10327000A0EB0800B04200D816B90320BDE8F883DF
:103280002068C06800F00400F8B1802D1ED0402DE9
:103290001CD020680068C0F3C000B0B100BF00209F
:1032A000009020680068009020684068009000BF8F
:1032B00000BF2046FFF783FE0820606400BF0020A7
:1032C00084F8400000BF0120D8E7FFE720680068CD
:1032D0002840A84201D1012000E00020B842C3D01C
:1032E0000020CBE700BFFEE702480068C0F30220E1
:1032F000704700000CED00E010B5002804DB0A0761
:10330000130E054A135406E00A07140E034A00F090
:103310000F031B1FD45410BD00E400E018ED00E0C3
:1033200030B586B000203A4D38CD03A938C1002110
:1033300000BF10E0374B33F8103003AC34F81040C6
:10334000A34203DA01232DF8103002E000232DF808
:103350001030431CD8B20528ECDBBDF80040BDF8A6
:10336000023004EB4304BDF8043004EB8304BDF8E1
:10337000063004EBC304BDF8083004EB031399B224
:10338000082929D007DC07293ED2DFE801F03D11EA
:1033900019150D3D1D000C291AD0102924D018290B
:1033A0001ED01F2930D126E000231B4C23702BE0B8
:1033B000FC23194C237027E0FD23174C237023E0D6
:1033C000FE23154C23701FE0FF23134C23701BE0DA
:1033D0000123114C237017E002230F4C237013E0DC
:1033E00003230D4C23700FE004230B4C23700023A8
:1033F0000A4C238008E01F2A05D0084B1B885B1C61
:103400001BB2064C238000BF00BF0A4606B030BD89
:10341000F4340008240300200C00002010000020D9
:1034200010B500224FF480510948FDF7EDFE01224E
:1034300051030748FDF7E8FE00224FF4804104489D
:10344000FDF7E2FE0122D1030148FDF7DDFE10BDCC
:1034500000040240FDF7F0FEFFF76AFBFFF740F9BA
:10346000FFF7F2F8FFF792F8FFF7BEF9FFF78AFAD5
:10347000FFF72EFA05220B490B48FDF737FBFDF746
:10348000C9FE0A49086000F015F80AE0084800681B
:1034900008B9FDF7CFF806480068012801D1FFF709
:1034A0008DFAF3E724030020240000200000002010
:1034B0000800002010B5012211030A48FDF7A4FE00
:1034C00000224FF400510748FDF79EFE01229103B0
:1034D0000448FDF799FE00224FF400410148FDF732
:1034E00093FE10BD000402404FF04070E1EE100A60
:1034F00070470000A907A607A707A507A7070006AA
:103500001016000610160000000000000000010266
:10351000030406070809000000000102030400007C
:10352000403500080000002024000000D4010008FD
:1035300064350008240000206C090000F001000838
:10354000000000000000000000000000000000007B
:10355000000000000000000010000000010000005A
:043560000024F4004F
:040000050800019955
:00000001FF
